{
  "contractName": "Lottery",
  "abi": [
    {
      "inputs": [],
      "stateMutability": "nonpayable",
      "type": "constructor"
    },
    {
      "inputs": [],
      "name": "manager",
      "outputs": [
        {
          "internalType": "address",
          "name": "",
          "type": "address"
        }
      ],
      "stateMutability": "view",
      "type": "function",
      "constant": true
    },
    {
      "inputs": [
        {
          "internalType": "uint256",
          "name": "",
          "type": "uint256"
        }
      ],
      "name": "players",
      "outputs": [
        {
          "internalType": "address",
          "name": "",
          "type": "address"
        }
      ],
      "stateMutability": "view",
      "type": "function",
      "constant": true
    },
    {
      "inputs": [],
      "name": "enter",
      "outputs": [],
      "stateMutability": "payable",
      "type": "function",
      "payable": true
    },
    {
      "inputs": [],
      "name": "pickupWinner",
      "outputs": [],
      "stateMutability": "nonpayable",
      "type": "function"
    },
    {
      "inputs": [],
      "name": "getplayers",
      "outputs": [
        {
          "internalType": "address[]",
          "name": "",
          "type": "address[]"
        }
      ],
      "stateMutability": "view",
      "type": "function",
      "constant": true
    },
    {
      "inputs": [],
      "name": "resetPlayers",
      "outputs": [],
      "stateMutability": "nonpayable",
      "type": "function"
    }
  ],
  "bytecode": "0x608060405234801561001057600080fd5b50336000806101000a81548173ffffffffffffffffffffffffffffffffffffffff021916908373ffffffffffffffffffffffffffffffffffffffff160217905550610a86806100606000396000f3fe6080604052600436106100555760003560e01c8063481c6a751461005a57806362214c0314610085578063e74bc6871461009c578063e97dcb62146100b3578063ecb3db52146100bd578063f71d96cb146100e8575b600080fd5b34801561006657600080fd5b5061006f610125565b60405161007c919061060b565b60405180910390f35b34801561009157600080fd5b5061009a610149565b005b3480156100a857600080fd5b506100b1610203565b005b6100bb61035f565b005b3480156100c957600080fd5b506100d26103d8565b6040516100df91906106e4565b60405180910390f35b3480156100f457600080fd5b5061010f600480360381019061010a9190610741565b610466565b60405161011c919061060b565b60405180910390f35b60008054906101000a900473ffffffffffffffffffffffffffffffffffffffff1681565b60008054906101000a900473ffffffffffffffffffffffffffffffffffffffff1673ffffffffffffffffffffffffffffffffffffffff163373ffffffffffffffffffffffffffffffffffffffff16146101a157600080fd5b600067ffffffffffffffff8111156101bc576101bb61076e565b5b6040519080825280602002602001820160405280156101ea5781602001602082028036833780820191505090505b5060019080519060200190610200929190610523565b50565b60008054906101000a900473ffffffffffffffffffffffffffffffffffffffff1673ffffffffffffffffffffffffffffffffffffffff163373ffffffffffffffffffffffffffffffffffffffff161461025b57600080fd5b600060018054905061026b6104a5565b61027591906107cc565b90506001818154811061028b5761028a6107fd565b5b9060005260206000200160009054906101000a900473ffffffffffffffffffffffffffffffffffffffff1673ffffffffffffffffffffffffffffffffffffffff166108fc479081150290604051600060405180830381858888f193505050501580156102fb573d6000803e3d6000fd5b50600067ffffffffffffffff8111156103175761031661076e565b5b6040519080825280602002602001820160405280156103455781602001602082028036833780820191505090505b506001908051906020019061035b929190610523565b5050565b67016345785d8a0000341161037357600080fd5b6001339080600181540180825580915050600190039060005260206000200160009091909190916101000a81548173ffffffffffffffffffffffffffffffffffffffff021916908373ffffffffffffffffffffffffffffffffffffffff160217905550565b6060600180548060200260200160405190810160405280929190818152602001828054801561045c57602002820191906000526020600020905b8160009054906101000a900473ffffffffffffffffffffffffffffffffffffffff1673ffffffffffffffffffffffffffffffffffffffff1681526020019060010190808311610412575b5050505050905090565b6001818154811061047657600080fd5b906000526020600020016000915054906101000a900473ffffffffffffffffffffffffffffffffffffffff1681565b60006002444260016040516020016104bf93929190610927565b6040516020818303038152906040526040516104db91906109d6565b602060405180830381855afa1580156104f8573d6000803e3d6000fd5b5050506040513d601f19601f8201168201806040525081019061051b9190610a23565b60001c905090565b82805482825590600052602060002090810192821561059c579160200282015b8281111561059b5782518260006101000a81548173ffffffffffffffffffffffffffffffffffffffff021916908373ffffffffffffffffffffffffffffffffffffffff16021790555091602001919060010190610543565b5b5090506105a991906105ad565b5090565b5b808211156105c65760008160009055506001016105ae565b5090565b600073ffffffffffffffffffffffffffffffffffffffff82169050919050565b60006105f5826105ca565b9050919050565b610605816105ea565b82525050565b600060208201905061062060008301846105fc565b92915050565b600081519050919050565b600082825260208201905092915050565b6000819050602082019050919050565b61065b816105ea565b82525050565b600061066d8383610652565b60208301905092915050565b6000602082019050919050565b600061069182610626565b61069b8185610631565b93506106a683610642565b8060005b838110156106d75781516106be8882610661565b97506106c983610679565b9250506001810190506106aa565b5085935050505092915050565b600060208201905081810360008301526106fe8184610686565b905092915050565b600080fd5b6000819050919050565b61071e8161070b565b811461072957600080fd5b50565b60008135905061073b81610715565b92915050565b60006020828403121561075757610756610706565b5b60006107658482850161072c565b91505092915050565b7f4e487b7100000000000000000000000000000000000000000000000000000000600052604160045260246000fd5b7f4e487b7100000000000000000000000000000000000000000000000000000000600052601260045260246000fd5b60006107d78261070b565b91506107e28361070b565b9250826107f2576107f161079d565b5b828206905092915050565b7f4e487b7100000000000000000000000000000000000000000000000000000000600052603260045260246000fd5b6108358161070b565b82525050565b600081549050919050565b60008190508160005260206000209050919050565b60008160001c9050919050565b600073ffffffffffffffffffffffffffffffffffffffff82169050919050565b600061089b6108968361085b565b610868565b9050919050565b60006108ae8254610888565b9050919050565b6000600182019050919050565b60006108cd8261083b565b6108d78185610631565b93506108e283610846565b8060005b8381101561091a576108f7826108a2565b6109018882610661565b975061090c836108b5565b9250506001810190506108e6565b5085935050505092915050565b600060608201905061093c600083018661082c565b610949602083018561082c565b818103604083015261095b81846108c2565b9050949350505050565b600081519050919050565b600081905092915050565b60005b8381101561099957808201518184015260208101905061097e565b60008484015250505050565b60006109b082610965565b6109ba8185610970565b93506109ca81856020860161097b565b80840191505092915050565b60006109e282846109a5565b915081905092915050565b6000819050919050565b610a00816109ed565b8114610a0b57600080fd5b50565b600081519050610a1d816109f7565b92915050565b600060208284031215610a3957610a38610706565b5b6000610a4784828501610a0e565b9150509291505056fea26469706673582212209ed3a9b11c06a99bd7f51e2035d2266a2513213d41aeb9494aae1e429a075cf664736f6c63430008110033",
  "immutableReferences": {},
  "source": "// SPDX-License-Identifier: GPL-3.0\r\n\r\npragma solidity  ^0.8.17;\r\n\r\ncontract Lottery{\r\n    address public manager;\r\n    address[] public players;\r\n\r\n    constructor(){\r\n        manager = msg.sender;\r\n    }\r\n\r\n    function enter() public payable{\r\n        require(msg.value > 0.1 ether);\r\n\r\n        players.push(msg.sender);\r\n    }\r\n\r\n    function random() private view returns (uint){\r\n        return uint(sha256(abi.encode(block.difficulty,block.timestamp,players)));\r\n    }\r\n\r\n    function pickupWinner() public onlyManager{\r\n        uint index = random() % players.length;\r\n        payable(players[index]).transfer(address(this).balance);\r\n        players = new address[](0);\r\n    }\r\n\r\n    modifier onlyManager(){\r\n        require(msg.sender == manager);\r\n        _;\r\n    }\r\n    \r\n    function getplayers() public view returns(address[] memory){\r\n        return players;\r\n    }\r\n\r\n    function resetPlayers() public onlyManager{\r\n        players = new address[](0);\r\n    }\r\n}",
  "sourcePath": "D:\\VEDANT\\PROJECTS\\college\\BCT_IA_Lottery_System\\contracts\\Lottery.sol",
  "compiler": {
    "name": "solc",
    "version": "0.8.17+commit.8df45f5f.Emscripten.clang"
  },
  "schemaVersion": "3.4.10",
  "updatedAt": "2022-11-19T14:26:56.279Z",
  "networkType": "ethereum",
  "devdoc": {
    "kind": "dev",
    "methods": {},
    "version": 1
  },
  "userdoc": {
    "kind": "user",
    "methods": {},
    "version": 1
  }
}