{
  "contractName": "Lottery",
  "abi": [
    {
      "inputs": [],
      "stateMutability": "nonpayable",
      "type": "constructor"
    },
    {
      "inputs": [],
      "name": "lastWinner",
      "outputs": [
        {
          "internalType": "address",
          "name": "",
          "type": "address"
        }
      ],
      "stateMutability": "view",
      "type": "function",
      "constant": true
    },
    {
      "inputs": [],
      "name": "manager",
      "outputs": [
        {
          "internalType": "address",
          "name": "",
          "type": "address"
        }
      ],
      "stateMutability": "view",
      "type": "function",
      "constant": true
    },
    {
      "inputs": [
        {
          "internalType": "uint256",
          "name": "",
          "type": "uint256"
        }
      ],
      "name": "players",
      "outputs": [
        {
          "internalType": "address",
          "name": "",
          "type": "address"
        }
      ],
      "stateMutability": "view",
      "type": "function",
      "constant": true
    },
    {
      "inputs": [],
      "name": "enter",
      "outputs": [],
      "stateMutability": "payable",
      "type": "function",
      "payable": true
    },
    {
      "inputs": [],
      "name": "pickupWinner",
      "outputs": [],
      "stateMutability": "nonpayable",
      "type": "function"
    },
    {
      "inputs": [],
      "name": "getplayers",
      "outputs": [
        {
          "internalType": "address[]",
          "name": "",
          "type": "address[]"
        }
      ],
      "stateMutability": "view",
      "type": "function",
      "constant": true
    },
    {
      "inputs": [],
      "name": "resetPlayers",
      "outputs": [],
      "stateMutability": "nonpayable",
      "type": "function"
    },
    {
      "inputs": [],
      "name": "getWinner",
      "outputs": [
        {
          "internalType": "address",
          "name": "",
          "type": "address"
        }
      ],
      "stateMutability": "view",
      "type": "function",
      "constant": true
    }
  ],
  "bytecode": "0x608060405234801561001057600080fd5b50336000806101000a81548173ffffffffffffffffffffffffffffffffffffffff021916908373ffffffffffffffffffffffffffffffffffffffff160217905550610bd1806100606000396000f3fe60806040526004361061007b5760003560e01c8063e97dcb621161004e578063e97dcb6214610104578063ecb3db521461010e578063f71d96cb14610139578063fe188184146101765761007b565b8063481c6a751461008057806362214c03146100ab5780638e7ea5b2146100c2578063e74bc687146100ed575b600080fd5b34801561008c57600080fd5b506100956101a1565b6040516100a29190610756565b60405180910390f35b3480156100b757600080fd5b506100c06101c5565b005b3480156100ce57600080fd5b506100d761027f565b6040516100e49190610756565b60405180910390f35b3480156100f957600080fd5b506101026102a9565b005b61010c610484565b005b34801561011a57600080fd5b506101236104fd565b604051610130919061082f565b60405180910390f35b34801561014557600080fd5b50610160600480360381019061015b919061088c565b61058b565b60405161016d9190610756565b60405180910390f35b34801561018257600080fd5b5061018b6105ca565b6040516101989190610756565b60405180910390f35b60008054906101000a900473ffffffffffffffffffffffffffffffffffffffff1681565b60008054906101000a900473ffffffffffffffffffffffffffffffffffffffff1673ffffffffffffffffffffffffffffffffffffffff163373ffffffffffffffffffffffffffffffffffffffff161461021d57600080fd5b600067ffffffffffffffff811115610238576102376108b9565b5b6040519080825280602002602001820160405280156102665781602001602082028036833780820191505090505b506002908051906020019061027c92919061066e565b50565b6000600160009054906101000a900473ffffffffffffffffffffffffffffffffffffffff16905090565b60008054906101000a900473ffffffffffffffffffffffffffffffffffffffff1673ffffffffffffffffffffffffffffffffffffffff163373ffffffffffffffffffffffffffffffffffffffff161461030157600080fd5b60006002805490506103116105f0565b61031b9190610917565b90506002818154811061033157610330610948565b5b9060005260206000200160009054906101000a900473ffffffffffffffffffffffffffffffffffffffff1673ffffffffffffffffffffffffffffffffffffffff166108fc479081150290604051600060405180830381858888f193505050501580156103a1573d6000803e3d6000fd5b50600281815481106103b6576103b5610948565b5b9060005260206000200160009054906101000a900473ffffffffffffffffffffffffffffffffffffffff16600160006101000a81548173ffffffffffffffffffffffffffffffffffffffff021916908373ffffffffffffffffffffffffffffffffffffffff160217905550600067ffffffffffffffff81111561043c5761043b6108b9565b5b60405190808252806020026020018201604052801561046a5781602001602082028036833780820191505090505b506002908051906020019061048092919061066e565b5050565b67016345785d8a0000341161049857600080fd5b6002339080600181540180825580915050600190039060005260206000200160009091909190916101000a81548173ffffffffffffffffffffffffffffffffffffffff021916908373ffffffffffffffffffffffffffffffffffffffff160217905550565b6060600280548060200260200160405190810160405280929190818152602001828054801561058157602002820191906000526020600020905b8160009054906101000a900473ffffffffffffffffffffffffffffffffffffffff1673ffffffffffffffffffffffffffffffffffffffff1681526020019060010190808311610537575b5050505050905090565b6002818154811061059b57600080fd5b906000526020600020016000915054906101000a900473ffffffffffffffffffffffffffffffffffffffff1681565b600160009054906101000a900473ffffffffffffffffffffffffffffffffffffffff1681565b600060024442600260405160200161060a93929190610a72565b6040516020818303038152906040526040516106269190610b21565b602060405180830381855afa158015610643573d6000803e3d6000fd5b5050506040513d601f19601f820116820180604052508101906106669190610b6e565b60001c905090565b8280548282559060005260206000209081019282156106e7579160200282015b828111156106e65782518260006101000a81548173ffffffffffffffffffffffffffffffffffffffff021916908373ffffffffffffffffffffffffffffffffffffffff1602179055509160200191906001019061068e565b5b5090506106f491906106f8565b5090565b5b808211156107115760008160009055506001016106f9565b5090565b600073ffffffffffffffffffffffffffffffffffffffff82169050919050565b600061074082610715565b9050919050565b61075081610735565b82525050565b600060208201905061076b6000830184610747565b92915050565b600081519050919050565b600082825260208201905092915050565b6000819050602082019050919050565b6107a681610735565b82525050565b60006107b8838361079d565b60208301905092915050565b6000602082019050919050565b60006107dc82610771565b6107e6818561077c565b93506107f18361078d565b8060005b8381101561082257815161080988826107ac565b9750610814836107c4565b9250506001810190506107f5565b5085935050505092915050565b6000602082019050818103600083015261084981846107d1565b905092915050565b600080fd5b6000819050919050565b61086981610856565b811461087457600080fd5b50565b60008135905061088681610860565b92915050565b6000602082840312156108a2576108a1610851565b5b60006108b084828501610877565b91505092915050565b7f4e487b7100000000000000000000000000000000000000000000000000000000600052604160045260246000fd5b7f4e487b7100000000000000000000000000000000000000000000000000000000600052601260045260246000fd5b600061092282610856565b915061092d83610856565b92508261093d5761093c6108e8565b5b828206905092915050565b7f4e487b7100000000000000000000000000000000000000000000000000000000600052603260045260246000fd5b61098081610856565b82525050565b600081549050919050565b60008190508160005260206000209050919050565b60008160001c9050919050565b600073ffffffffffffffffffffffffffffffffffffffff82169050919050565b60006109e66109e1836109a6565b6109b3565b9050919050565b60006109f982546109d3565b9050919050565b6000600182019050919050565b6000610a1882610986565b610a22818561077c565b9350610a2d83610991565b8060005b83811015610a6557610a42826109ed565b610a4c88826107ac565b9750610a5783610a00565b925050600181019050610a31565b5085935050505092915050565b6000606082019050610a876000830186610977565b610a946020830185610977565b8181036040830152610aa68184610a0d565b9050949350505050565b600081519050919050565b600081905092915050565b60005b83811015610ae4578082015181840152602081019050610ac9565b60008484015250505050565b6000610afb82610ab0565b610b058185610abb565b9350610b15818560208601610ac6565b80840191505092915050565b6000610b2d8284610af0565b915081905092915050565b6000819050919050565b610b4b81610b38565b8114610b5657600080fd5b50565b600081519050610b6881610b42565b92915050565b600060208284031215610b8457610b83610851565b5b6000610b9284828501610b59565b9150509291505056fea26469706673582212202b9b2d5f7b6602278e5e07aaec6e61732ef56439968607074828c98024532f8964736f6c63430008110033",
  "immutableReferences": {},
  "source": "// SPDX-License-Identifier: GPL-3.0\r\n\r\npragma solidity  ^0.8.17;\r\n\r\ncontract Lottery{\r\n    address public manager;\r\n    address public lastWinner;\r\n    address[] public players;\r\n\r\n    constructor(){\r\n        manager = msg.sender;\r\n    }\r\n\r\n    function enter() public payable{\r\n        require(msg.value > 0.1 ether);\r\n\r\n        players.push(msg.sender);\r\n    }\r\n\r\n    function random() private view returns (uint){\r\n        return uint(sha256(abi.encode(block.difficulty,block.timestamp,players)));\r\n    }\r\n\r\n    function pickupWinner() public onlyManager {\r\n        uint index = random() % players.length;\r\n        payable(players[index]).transfer(address(this).balance);\r\n        lastWinner = players[index];\r\n        players = new address[](0);\r\n    }\r\n\r\n    modifier onlyManager(){\r\n        require(msg.sender == manager);\r\n        _;\r\n    }\r\n    \r\n    function getplayers() public view returns(address[] memory){\r\n        return players;\r\n    }\r\n\r\n    function resetPlayers() public onlyManager{\r\n        players = new address[](0);\r\n    }\r\n\r\n    function getWinner() public view returns(address){\r\n        return lastWinner;\r\n    }\r\n}",
  "sourcePath": "D:\\Omkar\\Blockchain\\BCT_IA\\BCT_IA_Lottery_System\\contracts\\Lottery.sol",
  "compiler": {
    "name": "solc",
    "version": "0.8.17+commit.8df45f5f.Emscripten.clang"
  },
  "schemaVersion": "3.4.10",
  "updatedAt": "2022-11-20T16:32:03.711Z",
  "networkType": "ethereum",
  "devdoc": {
    "kind": "dev",
    "methods": {},
    "version": 1
  },
  "userdoc": {
    "kind": "user",
    "methods": {},
    "version": 1
  }
}